WPT ZBAA PEK0ZBAAZBP 1CZBCAPITAL                       016310     +40073333+116598333+0011612467ZBPE    9850
WPT ZBAD PKX0ZBADZBP 1CZBDAXING                        016311     +39500000+116400000+0008212467ZBPE    9850
WPT ZBDS DSN0ZBDSZBP 1CZBEJIN HORO                     016312     +39490000+109865000+0459310499ZBPE    9850
WPT ZBDT DAT0ZBDTZBP 1CZBYUNGANG                       016313     +40061667+113483333+0346709843ZBPE    9850
WPT ZBER ERL0ZBERZBP 1CZBSAIWUSU                       016314     +43425000+112093333+0332809186ZBPE    9850
WPT ZBHH HET0ZBHHZBP 1CZBBAITA                         016315     +40848333+111823333+0355611811ZBPE    9850
WPT ZBLA HLD0ZBLAZBP 1CZBHAILAR                        016316     +49205000+119826667+0216409186ZYSH    9850
WPT ZBMZ NZH0ZBMZZBP 1CZBXIJIAO                        016317     +49565000+117333333+0222909186ZYSH    9850
WPT ZBOW BAV0ZBOWZBP 1CZBDONGHE                        016318     +40558333+110000000+0332109186ZBPE    9850
WPT ZBSJ SJW0ZBSJZBP 1CZBZHENGDING                     016319     +38281667+114698333+0023311155ZBPE    
WPT ZBTJ TSN0ZBTJZBP 1CZBBINHAI                        016320     +39123333+117345000+0000611811ZBPE    9850
WPT ZBYC YCU0ZBYCZBP 1CZBYANHU                         016321     +35118333+111033333+0125310499ZBPE    9850
WPT ZBYN TYN0ZBYNZBP 1CZBWUSU                          016322     +37748333+112630000+0257911811ZBPE    9850
WPT ZGDY DYG0ZGDYZGP 1CZGHEHUA                         016323     +29101667+110445000+0071308530ZGZU    9850
WPT ZGGG CAN0ZGGGZGP 1CZGBAIYUN                        016324     +23393333+113308333+0005012467ZGZU    8860
WPT ZGHA CSX0ZGHAZGP 1CZGHUANGHUA                      016325     +28190000+113218333+0021912467ZGZU    9850
WPT ZGKL KWL0ZGKLZGP 1CZGLIANGJIANG                    016326     +25218144+110039308+0057110499ZGZU    9850
WPT ZGNN NNG0ZGNNZGP 1CZGWUXU                          016327     +22610000+108173333+0042010499ZGZU    10270
WPT ZGOW SWA0ZGOWZGP 1CZGCHAOSHAN                      016328     +23553333+116501667+0005110499ZGZU    8860
WPT ZGSZ SZX0ZGSZZGP 1CZGBAOAN                         016329     +22638333+113811667+0001312467ZGZU    8860
WPT ZGZJ ZHA0ZGZJZGP 1CZGWUCHUAN                       016330     +21485000+110595000+0006710499ZGZU    
WPT ZHCC CGO0ZHCCZHP 1CZHXINZHENG                      016331     +34519372+113841133+0049611811ZHWH    9850
WPT ZHEC EHU0ZHECZHP 1CZHHUAHU                         016332     +30341667+115028333+0007711811ZHWH    9850
WPT ZHES ENH0ZHESZHP 1CZHXUJIAPING                     016333     +30321667+109486667+0162408530ZHWH    9850
WPT ZHHH WUH0ZHHHZHP 1CZHTIANHE                        016334     +30785000+114206667+0011311811ZHWH    
WPT ZHYC YIH0ZHYCZHP 1CZHSANXIA                        016335     +30555000+111481667+0067210499ZHWH    
WPT ZJHK HAK0ZJHKZJP 1CZJMEILAN                        016336     +19933333+110460000+0007411811ZJSA    9850
WPT ZJQH BAR0ZJQHZJP 1CZJBOAO                          016337     +19138333+110453333+0005310499ZJSA    9850
WPT ZJSY SYX0ZJSYZJP 1CZJPHOENIX                       016338     +18301667+109413333+0009411155ZJSA    9850
WPT ZLDH DNH0ZLDHZLP 1CZLMOGAO                         016343     +40163333+094810000+0369011155ZLHW    9850
WPT ZLIC INC0ZLICZLP 1CZLHEDONG                        016344     +38320000+106393333+0374411811ZLHW    9850
WPT ZLLL LHW0ZLLLZLP 1CZLZHONGCHUAN                    016345     +36515000+103620000+0639313123ZLHW    15750
WPT ZLXN XNN0ZLXNZLP 1CZLCAOJIAPU                      016346     +36531667+102038333+0716612467ZLHW    15750
WPT ZLXY XIY0ZLXYZLP 1CZLXIANYANG                      016347     +34455000+108750000+0158412467ZLHW    
WPT ZPJH JHG0ZPJHZPP 1CZPGASA                          016371     +21975000+100761667+0181507874ZPKM    11820
WPT ZPLJ LJG0ZPLJZPP 1CZPSANYI                         016372     +26678333+100246667+0735809843ZPKM    19690
WPT ZPMS LUM0ZPMSZPP 1CZPMANGSHI                       016373     +24400000+098533333+0287708530ZPKM    13780
WPT ZPPP KMG0ZPPPZPP 1CZPCHANGSHUI                     016374     +25105000+102941667+0690114764ZPKM    17720
WPT ZSAM XMN0ZSAMZSP 1CZSGAOQI                         016375     +24545000+118126667+0005911155ZSHA    9850
WPT ZSCG CZX0ZSCGZSP 1CZSBENNIU                        016376     +31918333+119776667+0002411155ZSHA    6920
WPT ZSCN KHN0ZSCNZSP 1CZSCHANGBEI                      016377     +28863333+115900000+0014311155ZSHA    9850
WPT ZSFZ FOC0ZSFZZSP 1CZSCHANGLE                       016378     +25933333+119665000+0004711811ZSHA    9850
WPT ZSHC HGH0ZSHCZSP 1CZSXIAOSHAN                      016379     +30228333+120433333+0002211811ZSHA    9850
WPT ZSJN TNA0ZSJNZSP 1CZSYAOQIANG                      016380     +36857311+117216017+0007611811ZSHA    9850
WPT ZSLG LYG0ZSLGZSP 1CZSHUAGUOSHAN                    016381     +34411667+119180000+0001809186ZSHA    9850
WPT ZSLY LYI0ZSLYZSP 1CZSQIYANG                        016382     +35050000+118413333+0022210499ZSHA    9850
WPT ZSNB NGB0ZSNBZSP 1CZSLISHE                         016383     +29826667+121463333+0001210499ZSHA    
WPT ZSNJ NKG0ZSNJZSP 1CZSLUKOU                         016384     +31743333+118863333+0004911811ZSHA    
WPT ZSNT NTG0ZSNTZSP 1CZSXINGDONG                      016385     +32068333+120981667+0001611155ZSHA    
WPT ZSOF HFE0ZSOFZSP 1CZSXINQIAO                       016386     +31986667+116975000+0020811155ZSHA    9850
WPT ZSPD PVG0ZSPDZSP 1CZSPUDONG                        016387     +31145000+121793333+0001213123ZSHA    9850
WPT ZSQD TAO0ZSQDZSP 1CZSJIAODONG                      016388     +36365000+120098333+0003011811ZSHA    9850
WPT ZSQZ JJN0ZSQZZSP 1CZSJINJIANG                      016389     +24798333+118588333+0002108530ZSHA    9850
WPT ZSSH HIA0ZSSHZSP 1CZSLIANSHUI                      016390     +33790000+119123333+0003409186ZSHA    9850
WPT ZSSS SHA0ZSSSZSP 1CZSHONGQIAO                      016391     +31196667+121335000+0001011155ZSHA    
WPT ZSTX TXN0ZSTXZSP 1CZSTUNXI                         016392     +29735000+118255000+0044008530ZSHA    9850
WPT ZSWA WHA0ZSWAZSP 1CZSXUANZHOU                      016393     +31103333+118668333+0007809186ZSHA    
WPT ZSWH WEH0ZSWHZSP 1CZSDASHUIPO                      016394     +37186928+122228881+0014608530ZSHA    
WPT ZSWX WUX0ZSWXZSP 1CZSSHUOFANG                      016395     +31493333+120428333+0001710499ZSHA    5930
WPT ZSWZ WNZ0ZSWZZSP 1CZSLONGWAN                       016396     +27910000+120853333+0001710499ZSHA    
WPT ZSXZ XUZ0ZSXZZSP 1CZSGUANYIN                       016397     +34058333+117555000+0011511155ZSHA    9850
WPT ZSYA YTY0ZSYAZSP 1CZSTAIZHOU                       016398     +32561667+119718333+0001610499ZSHA    
WPT ZSYN YNZ0ZSYNZSP 1CZSNANYANG                       016399     +33425000+120201667+0001109186ZSHA    
WPT ZSYT YNT0ZSYTZSP 1CZSPENGLAI                       016400     +37661667+120978333+0015411155ZSHA    
WPT ZSYW YIW0ZSYWZSP 1CZSYIWU                          016401     +29343333+120033333+0027309843ZSHA    6180
WPT ZSZS HSN0ZSZSZSP 1CZSPUTUOSHAN                     016402     +29935000+122363333+0000608202ZSHA    9850
WPT ZUCK CKG0ZUCKZUP 1CZUJIANGBEI                      016403     +29720000+106640000+0136412467ZPKM    9850
WPT ZUGY KWE0ZUGYZUP 1CZULONGDONGBAO                   016404     +26536667+106800000+0373713123ZPKM    9850
WPT ZULS LXA0ZULSZUP 1CZUKONGGAR                       016405     +29296667+090911667+1171513123ZPKM    24610
WPT ZUTF TFU0ZUTFZUP 1CZUTIANFU                        016406     +30290000+104443333+0145213123ZPKM    9800
WPT ZUUU CTU0ZUUUZUP 1CZUSHUANGLIU                     016407     +30580000+103948333+0168111811ZPKM    9850
WPT ZUXC XIC0ZUXCZUP 1CZUQINGSHAN                      016408     +27990000+102183333+0511511811ZPKM    15750
WPT ZWSH KHG0ZWSHZWP 1CZWLAINING                       016411     +39545000+076021667+0452810499ZWUQ    
WPT ZWTN HTN0ZWTNZWP 1CZWKUNGANG                       016412     +37040000+079861667+0474710499ZWUQ    
WPT ZWWW URC0ZWWWZWP 1CZWTIANSHAN                      016413     +43908333+087475000+0212611811ZWUQ    9850
WPT ZWYN YIN0ZWYNZWP 1CZWYINING                        016414     +43955000+081331667+0224307874ZWUQ    9850
WPT ZYCC CGQ0ZYCCZYP 1CZYLONGJIA                       016415     +43998333+125688333+0070610499ZYSH    9850
WPT ZYHB HRB0ZYHBZYP 1CZYTAIPING                       016416     +45625000+126251667+0050211811ZYSH    9850
WPT ZYJM JMU0ZYJMZYP 1CZYJIAMUSI                       016417     +46841667+130465000+0026208202ZYSH    10110
WPT ZYMD MDG0ZYMDZYP 1CZYHAILANG                       016418     +44523333+129570000+0088508530ZYSH    10730
WPT ZYQQ NDG0ZYQQZYP 1CZYSANJIAZI                      016419     +47238333+123916667+0048309843ZYSH    10320
WPT ZYTL DLC0ZYTLZYP 1CZYZHOUSHUIZI                    016420     +38966667+121540000+0010710827ZYSH    
WPT ZYTX SHE0ZYTXZYP 1CZYTAOXIAN                       016421     +41641667+123485000+0019810499ZYSH    
WPT ZYYJ YNJ0ZYYJZYP 1CZYCHAOYANGCHUAN                 608189     +42881667+129450000+0062208530ZYSH    9490
WPT ZBAL AXF0ZBALZBP 1CZBBAYANHOT                      608001     +38748333+105584167+0457607872ZLHW    9850
WPT ZBAR RHT0ZBARZBP 1CZLBADAN JARAN                   608002     +39225278+101549444+0464807872ZLHW    9850
WPT ZBCD CDE0ZBCDZBP 1CZBPUNING                        608003     +41121389+118076389+0230309184ZBPE    9850
WPT ZBCF CIF0ZBCFZBP 1CZYYULONG                        608004     +42159722+118840833+0204009184ZYSH    9800
WPT ZBCZ CIH0ZBCZZBP 1CZBWANGCUN                       608005     +36248889+113126389+0302708003ZBPE    6890
WPT ZBDH BPE0ZBDHZBP 1CZBBEIDAIHE                      608006     +39666389+119061389+0005208528ZBPE    9850
WPT ZBEN EJN0ZBENZBP 1CZLTAOLAI                        608007     +42015556+101000556+0306706560ZLHW    9850
WPT ZBES YIE0ZBESZBP 1CZYYIERSHI                       608008     +47310556+119911944+0293907872ZYSH    9850
WPT ZBHD HDG0ZBHDZBP 1CZBHANDAN                        608009     +36524722+114423889+0023908528ZBPE    9800
WPT ZBHZ HUO0ZBHZZBP 1CZYHUOLINHE                      608010     +45487500+119406389+0323108860ZYSH    9850
WPT ZBLF LFQ0ZBLFZBP 1CZBYAODU                         608011     +36133889+111640833+0163308528ZBPE    9850
WPT ZBLL LLV0ZBLLZBP 1CZBDAWU                          608012     +37681944+111143056+0382808528ZBPE    9850
WPT ZBNY NAY0ZBNYZBP 1CZBNANYUAN                       608013     +39780895+116386426+0009810499ZBPE    9850
WPT ZBSG SZH0ZBSGZBP 1CZBZIRUN                         608014     +39272778+112690833+0342808528ZBPE    9850
WPT ZBSN TVS0ZBSNZBP 1CZBSANNVHE                       608015     +39717778+118002778+0004908860ZBPE    9850
WPT ZBTL TGO0ZBTLZBP 1CZYTONGLIAO                      608016     +43556944+122199722+0060408860ZYSH    9850
WPT ZBUC UCB0ZBUCZBP 1CZBJINING                        608017     +41130278+113106667+0463510496ZBPE    9850
WPT ZBUH WUA0ZBUHZBP 1CZLWUHAI                         608018     +39793333+106799444+0364408528ZLHW    9850
WPT ZBUL HLH0ZBULZBP 1CZYYILELITE                      608019     +46201667+121998889+0100408528ZYSH    9850
WPT ZBXH XIL0ZBXHZBP 1CZBXILINHAOTE                    608020     +43911944+115960278+0333609184ZBPE    9850
WPT ZBXT XNT0ZBXTZBP 1CZBDALIAN                        608021     +36883056+114429444+0027708530ZBPE    9850
WPT ZBXZ WUT0ZBXZZBP 1CZBWUTAISHAN                     608022     +38597222+112968333+0255808528ZBPE    6890
WPT ZBYZ RLK0ZBYZZBP 1CZBTAIJITAI                      608023     +40926944+107739444+0339208528ZBPE    9850
WPT ZBZJ ZQZ0ZBZJZBP 1CZBNINGYUAN                      608024     +40738611+114934167+0235509850ZBPE    6890
WPT ZBZL NZL0ZBZLZBP 1CZYCHENGJISIHAN                  608025     +47866667+122768909+0094108200ZYSH    9850
WPT ZGBH BHY0ZGBHZGP 1CZGFUCHENG                       608026     +21539444+109293889+0008210496ZGZU    9850
WPT ZGBS AEB0ZGBSZGP 1CZGBAMA                          608027     +23720000+106960278+0047908200ZGZU    5910
WPT ZGCD CGD0ZGCDZGP 1CZGTAOHUAYUAN                    608028     +28918889+111639722+0015108528ZGZU    9850
WPT ZGCJ HJJ0ZGCJZGP 1CZGZHIJIANG                      608029     +27443889+109705278+0087608528ZGZU    9850
WPT ZGCZ HCZ0ZGCZZGP 1CZGBEIHU                         608030     +25753611+112845556+0098708528ZGZU    9850
WPT ZGHC HCJ0ZGHCZGP 1CZGJINCHENGJIANG                 608031     +24805000+107710556+0222407216ZGZU    9850
WPT ZGHY HNY0ZGHYZGP 1CZGNANYUE                        608032     +26722222+112618056+0033508528ZGZU    9850
WPT ZGHZ HUZ0ZGHZZGP 1CZGPINGTAN                       608033     +23048611+114600278+0006207872ZGZU    8860
WPT ZGLD LDG0ZGLDZGP 1CZGLUODING                       608034     +22710833+111601389+0018704264ZGZU    9850
WPT ZGLG LLF0ZGLGZGP 1CZGLINGLING                      608035     +26338889+111610000+0034108528ZGZU    6890
WPT ZGMX MXZ0ZGMXZGP 1CZGMEIXIAN                       608036     +24265556+116099722+0030507872ZGZU    9800
WPT ZGSD ZUH0ZGSDZGP 1CZGJINWAN                        608037     +22006667+113376667+0002013120ZGZU    8860
WPT ZGSG HSC0ZGSGZGP 1CZGDANXIA                        608038     +24975556+113421944+0028209184ZGZU    6890
WPT ZGSY WGN0ZGSYZGP 1CZGWUGANG                        608039     +26806111+110641111+0151208528ZGZU    9850
WPT ZGUH ZUH0ZGUHZGP 1CZGJIUZHOU                       608040     +22251944+113590278+0001301476ZGZU    9800
WPT ZGWZ WUZ0ZGWZZGP 1CZGXIJIANG                       608041     +23403056+111099167+0030808528ZGZU    9850
WPT ZGXX DXJ0ZGXXZGP 1CZGBIANCHENG                     608042     +28495278+109519722+0232908528ZGZU    9850
WPT ZGYJ    0ZGYJZGP 1CZGHESHAN                        608043     +21961667+112102500+0003601968ZGZU    9800
WPT ZGYL YLX0ZGYLZGP 1CZGFUMIAN                        608044     +22433333+110120278+0045908528ZGZU    9850
WPT ZGYY YYA0ZGYYZGP 1CZGSANHE                         608045     +29312778+113281944+0024908528ZGZU    9850
WPT ZGZH LZH0ZGZHZGP 1CZGBAILIAN                       608046     +24207778+109391389+0032808331ZGZU    8860
WPT ZHJZ SHS0ZHJZZHP 1CZHSHASHI                        608047     +30292778+112448333+0009808528ZHWH    9850
WPT ZHLY LYA0ZHLYZHP 1CZHLUOYANG                       608048     +34741389+112387778+0086908200ZHWH    9850
WPT ZHNY NNY0ZHNYZHP 1CZHJIANGYIN                      608049     +32979444+112613889+0041309184ZHWH    9850
WPT ZHQQ HQQ0ZHQQZHP 1CZHHONGQIQU                      608050     +35869167+114465556+0034808528ZHWH    9850
WPT ZHSN HPG0ZHSNZHP 1CZHHONGPING                      608051     +31626111+110340000+0847909184ZHWH    14770
WPT ZHSY WDS0ZHSYZHP 1CZHWUDANGSHAN                    608052     +32593333+110906111+0106608528ZHWH    9850
WPT ZHXF XFN0ZHXFZHP 1CZHLIUJI                         608053     +32151867+112291589+0023608530ZHWH    9850
WPT ZHXY XAI0ZHXYZHP 1CZHMINGGANG                      608054     +32540833+114079167+0031808860ZHWH    5910
WPT ZJYX XYI0ZJYXZJP 1CZJYONGXING                      608055     +16833611+112345000+0001308860ZJSA    9850
WPT ZLAK AKA0ZLAKZLP 1CZLFUQIANG                       608056     +32756944+108873333+0121708528ZLHW    9850
WPT ZLDL HXD0ZLDLZLP 1CZLDELINGHA                      608057     +37125278+097268611+0938709850ZLHW    15750
WPT ZLGL GMQ0ZLGLZLP 1CZLMAQIN                         608058     +34418611+100300556+1242512464ZLHW    19680
WPT ZLGM GOQ0ZLGMZLP 1CZLGEERMU                        608059     +36400000+094786389+0932515750ZLHW    9800
WPT ZLGY GYU0ZLGYZLP 1CZLLIUPANSHAN                    608060     +36079444+106216389+0572709184ZLHW    13780
WPT ZLHB HBQ0ZLHBZLP 1CZLQILIAN                        608061     +38008333+100644722+1037511152ZLHW    20664
WPT ZLHX HTT0ZLHXZLP 1CZLHUATUGOU                      608062     +38198889+090840556+0952811808ZLHW    16728
WPT ZLHZ HZG0ZLHZZLP 1CZLCHENGGU                       608063     +33133889+107204722+0162408200ZLHW    7872
WPT ZLJC JIC0ZLJCZLP 1CZLJINCHUAN                      608064     +38542222+102348333+0473009850ZLHW    13780
WPT ZLJQ JGN0ZLJQZLP 1CZLJIUQUAN                       608065     +39856944+098341667+0511709850ZLHW    9850
WPT ZLLN LNL0ZLLNZLP 1CZLCHENGXIAN                     608066     +33790000+105788889+0371009184ZLHW    9800
WPT ZLQY IQN0ZLQYZLP 1CZLXIFENG                        608067     +35803056+107598889+0463509184ZLHW    9850
WPT ZLTS THQ0ZLTSZLP 1CZLMAIJISHAN                     608068     +34560278+105860278+0359209184ZLHW    9850
WPT ZLXH GXH0ZLXHZLP 1CZLXIAHE                         608069     +34819167+102621944+1046310496ZLHW    9800
WPT ZLYA ENY0ZLYAZLP 1CZLNANNIWAN                      608070     +36479722+109464167+0396609850ZLHW    9850
WPT ZLYL UYN0ZLYLZLP 1CZLYUYANG                        608071     +38358611+109591667+0389010496ZLHW    9850
WPT ZLYS YUS0ZLYSZLP 1CZLBATANG                        608072     +32836389+097036389+1280812464ZLHW    26568
WPT ZLZW ZHY0ZLZWZLP 1CZLSHAPOTOU                      608073     +37573333+105154722+0408709184ZLHW    10824
WPT ZLZY YZY0ZLZYZLP 1CZLGANZHOU                       608074     +38808056+100661111+0521209850ZLHW    13780
WPT ZPBS BSD0ZPBSZPP 1CZPYUNRUI                        608075     +25051944+099167500+0546107872ZPKM    13780
WPT ZPCW CWJ0ZPCWZPP 1CZPWASHAN                        608076     +23276111+099373333+0603508528ZPKM    13780
WPT ZPDL DLU0ZPDLZPP 1CZPFENGYI                        608077     +25650278+100318611+0706808528ZPKM    13780
WPT ZPDQ DIG0ZPDQZPP 1CZPSHANGERI-LA                   608078     +27789722+099678889+1078511808ZPKM    17712
WPT ZPJM JMJ0ZPJMZPP 1CZPJINGMAI                       608079     +22417500+099784167+0443108528ZPKM    13780
WPT ZPLC LNJ0ZPLCZPP 1CZPBOSHANG                       608080     +23739167+100024444+0622207872ZPKM    13780
WPT ZPNL NLH0ZPNLZPP 1CZPLUGUHU                        608081     +27540278+100759444+1080111152ZPKM    18696
WPT ZPSM SYM0ZPSMZPP 1CZPSIMAO                         608082     +22793611+100959167+0426408200ZPKM    9850
WPT ZPTC TCZ0ZPTCZPP 1CZPTUOFENG                       608083     +24938056+098485556+0619307708ZPKM    14770
WPT ZPWS WNH0ZPWSZPP 1CZPYANSHAN                       608084     +23558333+104325556+0521507872ZPKM    9850
WPT ZPZT ZAT0ZPZTZPP 1CZPZHAOTONG                      608085     +27327778+103756389+0635008528ZPKM    13780
WPT ZSAQ AQG0ZSAQZSP 1CZSANQING                        608086     +30582500+117050556+0005909184ZSHA    4930
WPT ZSBO BZJ0ZSBOZSO 1CZSBOZHOU                        608087     +33560278+115909444+0011508528ZSHA    9850
WPT ZSDY DOY0ZSDYZSP 1CZSSHENGLI                       608088     +37508889+118789167+0001611808ZSHA    9850
WPT ZSFY FUG0ZSFYZSP 1CZHFUYANG                        608089     +32881944+115734167+0010809184ZHWH    9850
WPT ZSGS JGS0ZSGSZSP 1CZSJINGGANGSHAN                  608090     +26857500+114737500+0028208528ZSHA    5910
WPT ZSGZ KOW0ZSGZZSP 1CZSHUANGJIN                      608091     +25853333+114779167+0044308528ZSHA    9850
WPT ZSHZ HZA0ZSHZZSP 1CZSMUDAN                         608092     +35213611+115736667+0015408528ZSHA    9850
WPT ZSJD JDZ0ZSJDZSP 1CZSJINGDEZHEN                    608093     +29338889+117175833+0013807872ZSHA    9800
WPT ZSJG JNG0ZSJGZSP 1CZSDA'AN                         608094     +35647222+116742222+0017109184ZSHA    9850
WPT ZSJH JUH0ZSJHZSP 1CZSJIUHUASHAN                    608095     +30740278+117687500+0006609184ZSHA    9850
WPT ZSJJ JIU0ZSJJZSP 1CZSLUSHAN                        608096     +29477222+115801667+0015409184ZSHA    9850
WPT ZSJU JUZ0ZSJUZSP 1CZSQUZHOU                        608097     +28966667+118899167+0021008528ZSHA    9850
WPT ZSLI LIJ0ZSLIZSP 1CZSLISHUI                        608098     +28370833+119835278+0053209184ZSHA    9850
WPT ZSLO LCX0ZSLOZSP 1CZSGUANZHAISHAN                  608099     +25676389+116746389+0122707872ZSHA    9800
WPT ZSLQ HYN0ZSLQZSP 1CZSLUQIAO                        608100     +28562500+121428889+0001308200ZSHA    9850
WPT ZSRJ JRJ0ZSRJZSP 1CZSRUIJIN                        608101     +25960833+116077778+0075608530ZSHA    9850
WPT ZSRZ RIZ0ZSRZZSP 1CZSSHANZIHE                      608102     +35405556+119323611+0016408528ZSHA    9850
WPT ZSSM SQJ0ZSSMZSP 1CZSSHAXIAN                       608103     +26426389+117833611+0092808528ZSHA    9850
WPT ZSSR SQD0ZSSRZSP 1CZSSANQINGSHAN                   608104     +28379722+117964167+0036107872ZSHA    9850
WPT ZSWF WEF0ZSWFZSP 1CZSWEIFANG                       608105     +36646944+119118611+0015408528ZSHA    4930
WPT ZSWY WUS0ZSWYZSP 1CZSWUYISHAN                      608106     +27700833+118000278+0064307872ZSHA    9800
WPT ZSYC YIC0ZSYCZSP 1CZSMINGYUESHAN                   608107     +27802500+114306389+0047607872ZSHA    9850
WPT ZUAL NGQ0ZUALZPP 1CZWKUNSHA                        608108     +32100000+080053056+1401914770ZWUQ    22640
WPT ZUAS AVA0ZUASZPP 1CZPHUANGGUOSHU                   608109     +26260556+105873333+0480809184ZPKM    9850
WPT ZUBD BPX0ZUBDZPP 1CZPBANGDA                        608110     +30555833+097106667+1421214770ZPKM    22640
WPT ZUBJ BFJ0ZUBJZPP 1CZPFEIXIONG                      608111     +27266944+105471667+0481508528ZPKM    13780
WPT ZUBZ BZX0ZUBZZPP 1CZPENYANG                        608112     +31737778+106642778+0182008528ZPKM    9850
WPT ZUDA DZH0ZUDAZPP 1CZPJINYA                         608113     +31048611+107436111+0136408528ZPKM    9850
WPT ZUDC DCY0ZUDCZPP 1CZPYADING                        608114     +29316667+100060278+1446813780ZPKM    20664
WPT ZUDR DDR0ZUDRZPP 1CZPDINGRI                        608115     +28605000+086797500+1416014770ZPKM    24600
WPT ZUGH GHN0ZUGHZPP 1CZPGUANGHAN                      608116     +30948611+104329444+0153207216ZPKM    9850
WPT ZUGU GYS0ZUGUZPP 1CZPPANLONG                       608117     +32390278+105693889+0205708200ZPKM    9850
WPT ZUGZ GZG0ZUGZZPP 1CZPGESAER                        608118     +31756111+099556944+1334013120ZPKM    23630
WPT ZUHY AHJ0ZUHYZPP 1CZPHONGYUAN                      608119     +32531667+102352222+1161111808ZPKM    20664
WPT ZUJZ JZH0ZUJZZPP 1CZPHUANGLONG                     608120     +32852778+103681944+1130911054ZPKM    19680
WPT ZUKD KGT0ZUKDZPP 1CZPKANGDING                      608121     +30143056+101738611+1389413120ZPKM    22640
WPT ZUKJ KJH0ZUKJZPP 1CZPHUANGPING                     608122     +26971944+107988056+0300808528ZPKM    9850
WPT ZULA LZG0ZULAZPP 1CZPGUCHENG                       608123     +31502500+106034722+0147708528ZPKM    9850
WPT ZULB LLB0ZULBZPP 1CZGLIBO                          608124     +25451111+107962500+0270608528ZGZU    9850
WPT ZULZ LZO0ZULZZPP 1CZPYUNLONG                       608125     +29030556+105468909+0110209184ZPKM    9850
WPT ZUMT WMT0ZUMTZPP 1CZPMAOTAI                        608126     +27962500+106435556+0407408528ZPKM    9850
WPT ZUMY MIG0ZUMYZPP 1CZPNANJIAO                       608127     +31430000+104739722+0170207872ZPKM    9850
WPT ZUNC NAO0ZUNCZPP 1CZPGAOPING                       608128     +30798056+106164444+0116109184ZPKM    9850
WPT ZUNP HZH0ZUNPZPP 1CZGLIPING                        608129     +26322222+109150000+0159107216ZGZU    9850
WPT ZUNZ LZY0ZUNZZPP 1CZPNYINGCHI                      608130     +29303611+094335000+0967609850ZPKM    23630
WPT ZUPL APJ0ZUPLZPP 1CZWPULAN                         608131     +30397778+081133056+1395614770ZWUQ    22640
WPT ZUPS LPF0ZUPSZPP 1CZPYUEZHAO                       608132     +26608889+104978333+0647809184ZPKM    13780
WPT ZUQJ JIQ0ZUQJZPP 1CZPWULINGSHAN                    608133     +29514722+108831667+0207307872ZPKM    9850
WPT ZURK RKZ0ZURKZPP 1CZPHEPING                        608134     +29351944+089310556+1246716400ZPKM    24600
WPT ZUSH LGZ0ZUSHZPP 1CZPLONGZI                        608135     +28422500+092348056+1295914770ZPKM    24600
WPT ZUTR TEN0ZUTRZPP 1CZPFENGHUANG                     608136     +27884167+109309444+0231208528ZPKM    9850
WPT ZUWL CQW0ZUWLZPP 1CZPXIANNVSHAN                    608137     +29463889+107693333+0572409184ZPKM    9850
WPT ZUWS WSK0ZUWSZPP 1CZHWUSHAN                        608138     +31068909+109709167+0581208528ZHWH    13780
WPT ZUWX WXN0ZUWXZPP 1CZPWUQIAO                        608139     +30801667+108433056+0187609184ZPKM    9850
WPT ZUXJ    0ZUXJZPP 1CZPXINJIN                        608140     +30421111+103844444+0151203936ZPKM    9850
WPT ZUYB YBP0ZUYBZPP 1CZPYIBING                        608141     +28858333+104526667+0138708528ZPKM    9850
WPT ZUYI ACX0ZUYIZPP 1CZPZUNYI                         608142     +25086667+104959444+0411609184ZPKM    9850
WPT ZUZH PZI0ZUZHZPP 1CZPBAO'ANYING                    608143     +26540000+101798611+0649409184ZPKM    13780
WPT ZUZY ZYI0ZUZYZPP 1CZPXINZHOU                       608144     +27811111+107246111+0272209184ZPKM    9850
WPT ZWAK AKU0ZWAKZWP 1CZWHONGQIPO                      608145     +41263056+080289444+0383809184ZWUQ    5910
WPT ZWAL ACF0ZWALZWP 1CZWTALIMU                        608146     +40435833+081264167+0334209184ZWUQ    9850
WPT ZWAT AAT0ZWATZWP 1CZWXUEDU                         608147     +47750278+088084444+0249309184ZWUQ    9850
WPT ZWBL BPL0ZWBLZWP 1CZWALASHANKOU                    608148     +44895556+082300000+0130508528ZWUQ    9850
WPT ZWCM IQM0ZWCMZWP 1CZWYUDU                          608149     +38233611+085464444+0400209184ZWUQ    5910
WPT ZWFY FYN0ZWFYZWP 1CZWKEKETUOHAI                    608150     +46804167+089512222+0308308528ZWUQ    6890
WPT ZWHJ HJB0ZWHJZWP 1CZWBAYINBULUKE                   608151     +42976944+083996667+0822309850ZWUQ    17712
WPT ZWHM HMI0ZWHMZWP 1CZWYIZHOU                        608152     +42841667+093668611+0273209184ZWUQ    7872
WPT ZWHZ SHF0ZWHZZWP 1CZWHUAYUAN                       608153     +44241944+085890556+0169909184ZWUQ    9850
WPT ZWKC KCA0ZWKCZWP 1CZWQIUCI                         608154     +41677778+082872778+0340808528ZWUQ    9850
WPT ZWKL KRL0ZWKLZWP 1CZWLICHENG                       608155     +41615000+086141667+0303709184ZWUQ    6890
WPT ZWKM KRY0ZWKMZWP 1CZWGUHAI                         608156     +45466667+084952778+0090208528ZWUQ    9850
WPT ZWKN KJI0ZWKNZWP 1CZWKANASI                        608157     +48222500+086995833+0392308200ZWUQ    9850
WPT ZWLK DHH0ZWLKZWP 1CZWBALIKUN                       608158     +43756111+093138056+0568909850ZWUQ    13780
WPT ZWNL NLT0ZWNLZWP 1CZWNALATI                        608159     +43431667+083377500+0307307544ZWUQ    9850
WPT ZWQT JBK0ZWQTZWP 1CZWJIANGBULAKE                   608160     +44166111+089553056+0217509184ZWUQ    9850
WPT ZWRQ RQA0ZWRQZWP 1CZWLOULAN                        608161     +38974722+088008333+0293609184ZWUQ    9850
WPT ZWSC QSZ0ZWSCZWP 1CZWYE'ERQIANG                    608162     +38244167+077056944+0427409850ZWUQ    13780
WPT ZWTC TCG0ZWTCZWP 1CZWQIANQUAN                      608163     +46670833+083345833+0201109184ZWUQ    9850
WPT ZWTK HQL0ZWTKZWP 1CZWHONGQILAFU                    608164     +37661389+075288889+1068612464ZWUQ    23630
WPT ZWTL TLQ0ZWTLZWP 1CZWJIAOHE                        608165     +43030833+089098889+0092510496ZWUQ    9850
WPT ZWTS TWC0ZWTSZWP 1CZWTANGWANGCHENG                 608166     +39888333+079234444+0357809850ZWUQ    9850
WPT ZWYT YTW0ZWYTZWP 1CZWWANFANG                       608167     +36808611+081783333+0474310496ZWUQ    8860
WPT ZWZS ZFL0ZWZSZWP 1CZWTAINMA                        608168     +43088333+081224444+0570409184ZWUQ    13780
WPT ZYAS AOG0ZYASZYP 1CZYTENGAO                        608169     +41106111+122853611+0005609184ZYSH    9800
WPT ZYBA DBC0ZYBAZYP 1CZYCHANG'AN                      608170     +45505278+123019722+0047908200ZYSH    9800
WPT ZYBS NBS0ZYBSZYP 1CZYCHANGBAISHAN                  608171     +42066944+127602222+0289308528ZYSH    9850
WPT ZYCH CNI0ZYCHZYP 1CZYCHANGHAI                      608172     +39266389+122666944+0011502624ZYSH    2952
WPT ZYCY CHG0ZYCYZYP 1CZYCHAOYANG                      608173     +41538333+120434444+0056707052ZYSH    9850
WPT ZYDD DDG0ZYDDZYP 1CZYLANGTOU                       608174     +40025556+124286944+0003308528ZYSH    9800
WPT ZYDQ DQA0ZYDQZYP 1CZYSAERTU                        608175     +46751944+125138056+0050208528ZYSH    9850
WPT ZYDU DTU0ZYDUZYP 1CZYDEDU                          608176     +48441111+126128889+0102308200ZYSH    9850
WPT ZYFY FYJ0ZYFYZYP 1CZYDONGJI                        608177     +48197222+134363333+0020008200ZYSH    9850
WPT ZYHE HEK0ZYHEZYP 1CZYAIHUI                         608178     +50171944+127309167+0105308200ZYSH    9850
WPT ZYJD JGD0ZYJDZYP 1CZYELUNCHUN                      608179     +50371111+124117500+0121707544ZYSH    9850
WPT ZYJS JSJ0ZYJSZYP 1CZYSHIDI                         608180     +47108611+132657500+0019408200ZYSH    9850
WPT ZYJX JXA0ZYJXZYP 1CZYXINGKAIHU                     608181     +45293056+131193056+0074509184ZYSH    9850
WPT ZYJZ JNZ0ZYJZZYP 1CZYJINZHOUWAN                    608182     +40936111+121277222+0002308200ZYSH    9850
WPT ZYLD LDS0ZYLDZYP 1CZYLINDU                         608183     +47751944+129019167+0084309184ZYSH    9850
WPT ZYMH OHE0ZYMHZYP 1CZYGULIAN                        608184     +52916944+122423056+0185609184ZYSH    9850
WPT ZYSD HSF0ZYSDZYP 1CZYDONGNING                      608185     +44454167+130843611+0140108200ZYSH    9850
WPT ZYSQ YSQ0ZYSQZYP 1CZYCHAGNHU                       608186     +44931111+124551944+0049208200ZYSH    9850
WPT ZYTN TNH0ZYTNZYP 1CZYSANYUANPU                     608187     +42047778+125733333+0135807544ZYSH    9850
WPT ZYYK YKH0ZYYKZYP 1CZYLANQI                         608188     +40542500+122358611+0002008200ZYSH    9850